{
  "_format": "hh-sol-artifact-1",
  "contractName": "CrowdFunding",
  "sourceName": "contracts/CrowdFunding.sol",
  "abi": [
    {
      "inputs": [
        {
          "internalType": "address",
          "name": "connectorAddress",
          "type": "address"
        },
        {
          "internalType": "address",
          "name": "zetaConsumerAddress",
          "type": "address"
        }
      ],
      "stateMutability": "nonpayable",
      "type": "constructor"
    },
    {
      "inputs": [],
      "name": "InvalidAddress",
      "type": "error"
    },
    {
      "inputs": [
        {
          "internalType": "address",
          "name": "caller",
          "type": "address"
        }
      ],
      "name": "InvalidCaller",
      "type": "error"
    },
    {
      "inputs": [],
      "name": "InvalidDestinationChainId",
      "type": "error"
    },
    {
      "inputs": [],
      "name": "InvalidZetaMessageCall",
      "type": "error"
    },
    {
      "inputs": [],
      "name": "InvalidZetaRevertCall",
      "type": "error"
    },
    {
      "anonymous": false,
      "inputs": [
        {
          "indexed": false,
          "internalType": "uint8",
          "name": "id",
          "type": "uint8"
        }
      ],
      "name": "Claim",
      "type": "event"
    },
    {
      "anonymous": false,
      "inputs": [
        {
          "indexed": false,
          "internalType": "uint8",
          "name": "id",
          "type": "uint8"
        },
        {
          "indexed": true,
          "internalType": "address",
          "name": "admin",
          "type": "address"
        },
        {
          "indexed": false,
          "internalType": "string",
          "name": "name",
          "type": "string"
        },
        {
          "indexed": false,
          "internalType": "string",
          "name": "description",
          "type": "string"
        },
        {
          "indexed": false,
          "internalType": "uint64",
          "name": "amount_required",
          "type": "uint64"
        },
        {
          "indexed": false,
          "internalType": "string[]",
          "name": "tags",
          "type": "string[]"
        }
      ],
      "name": "Launch",
      "type": "event"
    },
    {
      "anonymous": false,
      "inputs": [
        {
          "indexed": true,
          "internalType": "address",
          "name": "previousOwner",
          "type": "address"
        },
        {
          "indexed": true,
          "internalType": "address",
          "name": "newOwner",
          "type": "address"
        }
      ],
      "name": "OwnershipTransferStarted",
      "type": "event"
    },
    {
      "anonymous": false,
      "inputs": [
        {
          "indexed": true,
          "internalType": "address",
          "name": "previousOwner",
          "type": "address"
        },
        {
          "indexed": true,
          "internalType": "address",
          "name": "newOwner",
          "type": "address"
        }
      ],
      "name": "OwnershipTransferred",
      "type": "event"
    },
    {
      "anonymous": false,
      "inputs": [
        {
          "indexed": true,
          "internalType": "uint8",
          "name": "id",
          "type": "uint8"
        },
        {
          "indexed": true,
          "internalType": "address",
          "name": "pledger",
          "type": "address"
        },
        {
          "indexed": false,
          "internalType": "uint64",
          "name": "amount",
          "type": "uint64"
        }
      ],
      "name": "Pledge",
      "type": "event"
    },
    {
      "anonymous": false,
      "inputs": [
        {
          "indexed": false,
          "internalType": "uint8",
          "name": "id",
          "type": "uint8"
        },
        {
          "indexed": true,
          "internalType": "address",
          "name": "pledger",
          "type": "address"
        },
        {
          "indexed": false,
          "internalType": "uint64",
          "name": "amount",
          "type": "uint64"
        }
      ],
      "name": "Refund",
      "type": "event"
    },
    {
      "anonymous": false,
      "inputs": [
        {
          "indexed": true,
          "internalType": "uint8",
          "name": "id",
          "type": "uint8"
        },
        {
          "indexed": true,
          "internalType": "address",
          "name": "pledger",
          "type": "address"
        },
        {
          "indexed": false,
          "internalType": "uint64",
          "name": "amount",
          "type": "uint64"
        }
      ],
      "name": "Unpledge",
      "type": "event"
    },
    {
      "inputs": [],
      "name": "acceptOwnership",
      "outputs": [],
      "stateMutability": "nonpayable",
      "type": "function"
    },
    {
      "inputs": [],
      "name": "campaignCount",
      "outputs": [
        {
          "internalType": "uint8",
          "name": "",
          "type": "uint8"
        }
      ],
      "stateMutability": "view",
      "type": "function"
    },
    {
      "inputs": [
        {
          "internalType": "uint8",
          "name": "",
          "type": "uint8"
        }
      ],
      "name": "campaigns",
      "outputs": [
        {
          "internalType": "uint8",
          "name": "id",
          "type": "uint8"
        },
        {
          "internalType": "address payable",
          "name": "admin",
          "type": "address"
        },
        {
          "internalType": "string",
          "name": "name",
          "type": "string"
        },
        {
          "internalType": "uint64",
          "name": "amount_required",
          "type": "uint64"
        },
        {
          "internalType": "bool",
          "name": "donation_complete",
          "type": "bool"
        },
        {
          "internalType": "string",
          "name": "description",
          "type": "string"
        },
        {
          "internalType": "uint64",
          "name": "amount_donated",
          "type": "uint64"
        }
      ],
      "stateMutability": "view",
      "type": "function"
    },
    {
      "inputs": [
        {
          "internalType": "uint8",
          "name": "id",
          "type": "uint8"
        }
      ],
      "name": "claim",
      "outputs": [],
      "stateMutability": "nonpayable",
      "type": "function"
    },
    {
      "inputs": [],
      "name": "connector",
      "outputs": [
        {
          "internalType": "contract ZetaConnector",
          "name": "",
          "type": "address"
        }
      ],
      "stateMutability": "view",
      "type": "function"
    },
    {
      "inputs": [
        {
          "internalType": "string",
          "name": "name",
          "type": "string"
        },
        {
          "internalType": "string",
          "name": "description",
          "type": "string"
        },
        {
          "internalType": "uint64",
          "name": "amount_required",
          "type": "uint64"
        },
        {
          "internalType": "string[]",
          "name": "tags",
          "type": "string[]"
        }
      ],
      "name": "create",
      "outputs": [],
      "stateMutability": "nonpayable",
      "type": "function"
    },
    {
      "inputs": [
        {
          "internalType": "uint8",
          "name": "id",
          "type": "uint8"
        }
      ],
      "name": "donate",
      "outputs": [],
      "stateMutability": "payable",
      "type": "function"
    },
    {
      "inputs": [
        {
          "internalType": "uint256",
          "name": "",
          "type": "uint256"
        }
      ],
      "name": "interactorsByChainId",
      "outputs": [
        {
          "internalType": "bytes",
          "name": "",
          "type": "bytes"
        }
      ],
      "stateMutability": "view",
      "type": "function"
    },
    {
      "inputs": [],
      "name": "owner",
      "outputs": [
        {
          "internalType": "address",
          "name": "",
          "type": "address"
        }
      ],
      "stateMutability": "view",
      "type": "function"
    },
    {
      "inputs": [],
      "name": "pendingOwner",
      "outputs": [
        {
          "internalType": "address",
          "name": "",
          "type": "address"
        }
      ],
      "stateMutability": "view",
      "type": "function"
    },
    {
      "inputs": [
        {
          "internalType": "uint8",
          "name": "",
          "type": "uint8"
        },
        {
          "internalType": "address",
          "name": "",
          "type": "address"
        }
      ],
      "name": "pledgedAmount",
      "outputs": [
        {
          "internalType": "uint64",
          "name": "",
          "type": "uint64"
        }
      ],
      "stateMutability": "view",
      "type": "function"
    },
    {
      "inputs": [
        {
          "internalType": "uint8",
          "name": "id",
          "type": "uint8"
        }
      ],
      "name": "refund",
      "outputs": [],
      "stateMutability": "nonpayable",
      "type": "function"
    },
    {
      "inputs": [],
      "name": "renounceOwnership",
      "outputs": [],
      "stateMutability": "nonpayable",
      "type": "function"
    },
    {
      "inputs": [
        {
          "internalType": "uint256",
          "name": "destinationChainId",
          "type": "uint256"
        },
        {
          "internalType": "uint8",
          "name": "campaignId",
          "type": "uint8"
        }
      ],
      "name": "sendMessage",
      "outputs": [],
      "stateMutability": "payable",
      "type": "function"
    },
    {
      "inputs": [
        {
          "internalType": "uint256",
          "name": "destinationChainId",
          "type": "uint256"
        },
        {
          "internalType": "bytes",
          "name": "contractAddress",
          "type": "bytes"
        }
      ],
      "name": "setInteractorByChainId",
      "outputs": [],
      "stateMutability": "nonpayable",
      "type": "function"
    },
    {
      "inputs": [
        {
          "internalType": "address",
          "name": "newOwner",
          "type": "address"
        }
      ],
      "name": "transferOwnership",
      "outputs": [],
      "stateMutability": "nonpayable",
      "type": "function"
    },
    {
      "inputs": [
        {
          "internalType": "uint8",
          "name": "id",
          "type": "uint8"
        },
        {
          "internalType": "uint64",
          "name": "amount",
          "type": "uint64"
        }
      ],
      "name": "unpledge",
      "outputs": [],
      "stateMutability": "nonpayable",
      "type": "function"
    }
  ],
  "bytecode": "0x6101006040523480156200001257600080fd5b506040516200315a3803806200315a83398181016040528101906200003891906200034b565b81620000596200004d620001f860201b60201c565b6200020060201b60201c565b600073ffffffffffffffffffffffffffffffffffffffff168173ffffffffffffffffffffffffffffffffffffffff161415620000c1576040517fe6c4247b00000000000000000000000000000000000000000000000000000000815260040160405180910390fd5b46608081815250508073ffffffffffffffffffffffffffffffffffffffff1660a08173ffffffffffffffffffffffffffffffffffffffff1660601b81525050508173ffffffffffffffffffffffffffffffffffffffff166321e093b16040518163ffffffff1660e01b815260040160206040518083038186803b1580156200014857600080fd5b505afa1580156200015d573d6000803e3d6000fd5b505050506040513d601f19601f8201168201806040525081019062000183919062000319565b73ffffffffffffffffffffffffffffffffffffffff1660e08173ffffffffffffffffffffffffffffffffffffffff1660601b815250508073ffffffffffffffffffffffffffffffffffffffff1660c08173ffffffffffffffffffffffffffffffffffffffff1660601b815250505050620003e5565b600033905090565b600160006101000a81549073ffffffffffffffffffffffffffffffffffffffff02191690556200023b816200023e60201b620017971760201c565b50565b60008060009054906101000a900473ffffffffffffffffffffffffffffffffffffffff169050816000806101000a81548173ffffffffffffffffffffffffffffffffffffffff021916908373ffffffffffffffffffffffffffffffffffffffff1602179055508173ffffffffffffffffffffffffffffffffffffffff168173ffffffffffffffffffffffffffffffffffffffff167f8be0079c531659141344cd1fd0a4f28419497f9722a3daafe3b4186f6b6457e060405160405180910390a35050565b6000815190506200031381620003cb565b92915050565b600060208284031215620003325762000331620003c6565b5b6000620003428482850162000302565b91505092915050565b60008060408385031215620003655762000364620003c6565b5b6000620003758582860162000302565b9250506020620003888582860162000302565b9150509250929050565b60006200039f82620003a6565b9050919050565b600073ffffffffffffffffffffffffffffffffffffffff82169050919050565b600080fd5b620003d68162000392565b8114620003e257600080fd5b50565b60805160a05160601c60c05160601c60e05160601c612d276200043360003960006112ac015260006111fc0152600081816107d6015281816112e8015261137a015260005050612d276000f3fe6080604052600436106100fe5760003560e01c806395d4063f11610095578063b115ef4111610064578063b115ef4114610313578063d90d682b1461033c578063e30c397814610358578063e5b0b36b14610383578063f2fde38b1461039f576100fe565b806395d4063f14610241578063a1fbe8b71461026a578063a4bf1c0614610293578063aec49e90146102d6576100fe565b80637274e30d116100d15780637274e30d146101a957806379ba5097146101d457806383f3084f146101eb5780638da5cb5b14610216576100fe565b806304e799bd146101035780632618143f1461012c5780634fd3f7d714610169578063715018a614610192575b600080fd5b34801561010f57600080fd5b5061012a60048036038101906101259190611f95565b6103c8565b005b34801561013857600080fd5b50610153600480360381019061014e9190611e9b565b610650565b60405161016091906124b0565b60405180910390f35b34801561017557600080fd5b50610190600480360381019061018b9190611ef5565b6106f0565b005b34801561019e57600080fd5b506101a7610720565b005b3480156101b557600080fd5b506101be610734565b6040516101cb919061262a565b60405180910390f35b3480156101e057600080fd5b506101e9610747565b005b3480156101f757600080fd5b506102006107d4565b60405161020d91906124d2565b60405180910390f35b34801561022257600080fd5b5061022b6107f8565b604051610238919061246c565b60405180910390f35b34801561024d57600080fd5b5061026860048036038101906102639190611f95565b610821565b005b34801561027657600080fd5b50610291600480360381019061028c9190612002565b610a8e565b005b34801561029f57600080fd5b506102ba60048036038101906102b59190611f95565b610c91565b6040516102cd9796959493929190612645565b60405180910390f35b3480156102e257600080fd5b506102fd60048036038101906102f89190611fc2565b610e45565b60405161030a919061260f565b60405180910390f35b34801561031f57600080fd5b5061033a60048036038101906103359190611de0565b610e7b565b005b61035660048036038101906103519190611f55565b611100565b005b34801561036457600080fd5b5061036d61150f565b60405161037a919061246c565b60405180910390f35b61039d60048036038101906103989190611f95565b611539565b005b3480156103ab57600080fd5b506103c660048036038101906103c19190611d86565b6116ea565b005b6000600360008360ff1660ff16815260200190815260200160002090508060030160009054906101000a900467ffffffffffffffff1667ffffffffffffffff168160050160009054906101000a900467ffffffffffffffff1667ffffffffffffffff161061046b576040517f08c379a0000000000000000000000000000000000000000000000000000000008152600401610462906124ed565b60405180910390fd5b8060030160089054906101000a900460ff16156104bd576040517f08c379a00000000000000000000000000000000000000000000000000000000081526004016104b4906125cd565b60405180910390fd5b6000600560008460ff1660ff16815260200190815260200160002060003373ffffffffffffffffffffffffffffffffffffffff1673ffffffffffffffffffffffffffffffffffffffff16815260200190815260200160002060009054906101000a900467ffffffffffffffff1690506000600560008560ff1660ff16815260200190815260200160002060003373ffffffffffffffffffffffffffffffffffffffff1673ffffffffffffffffffffffffffffffffffffffff16815260200190815260200160002060006101000a81548167ffffffffffffffff021916908367ffffffffffffffff1602179055503373ffffffffffffffffffffffffffffffffffffffff166108fc8267ffffffffffffffff169081150290604051600060405180830381858888f193505050501580156105fa573d6000803e3d6000fd5b503373ffffffffffffffffffffffffffffffffffffffff167fb99f5855398fde83fb179bfa96660e37dd33121cba180e1dded793725dd915cf848360405161064392919061272a565b60405180910390a2505050565b6002602052806000526040600020600091509050805461066f906129ed565b80601f016020809104026020016040519081016040528092919081815260200182805461069b906129ed565b80156106e85780601f106106bd576101008083540402835291602001916106e8565b820191906000526020600020905b8154815290600101906020018083116106cb57829003601f168201915b505050505081565b6106f861185b565b818160026000868152602001908152602001600020919061071a929190611999565b50505050565b61072861185b565b61073260006118d9565b565b600460009054906101000a900460ff1681565b600061075161190a565b90508073ffffffffffffffffffffffffffffffffffffffff1661077261150f565b73ffffffffffffffffffffffffffffffffffffffff16146107c8576040517f08c379a00000000000000000000000000000000000000000000000000000000081526004016107bf9061250d565b60405180910390fd5b6107d1816118d9565b50565b7f000000000000000000000000000000000000000000000000000000000000000081565b60008060009054906101000a900473ffffffffffffffffffffffffffffffffffffffff16905090565b6000600360008360ff1660ff16815260200190815260200160002090508060000160019054906101000a900473ffffffffffffffffffffffffffffffffffffffff1673ffffffffffffffffffffffffffffffffffffffff163373ffffffffffffffffffffffffffffffffffffffff16146108d0576040517f08c379a00000000000000000000000000000000000000000000000000000000081526004016108c79061258d565b60405180910390fd5b8060030160009054906101000a900467ffffffffffffffff1667ffffffffffffffff168160050160009054906101000a900467ffffffffffffffff1667ffffffffffffffff161015610957576040517f08c379a000000000000000000000000000000000000000000000000000000000815260040161094e906125ad565b60405180910390fd5b8060030160089054906101000a900460ff16156109a9576040517f08c379a00000000000000000000000000000000000000000000000000000000081526004016109a0906125cd565b60405180910390fd5b60018160030160086101000a81548160ff0219169083151502179055508060000160019054906101000a900473ffffffffffffffffffffffffffffffffffffffff1673ffffffffffffffffffffffffffffffffffffffff166108fc8260050160009054906101000a900467ffffffffffffffff1667ffffffffffffffff169081150290604051600060405180830381858888f19350505050158015610a52573d6000803e3d6000fd5b507f0ae175440cd9ac12279bbac2afc93724b141516f30c13b6b31f164441ef65cf282604051610a82919061262a565b60405180910390a15050565b6000600360008460ff1660ff16815260200190815260200160002090508060030160089054906101000a900460ff1615610afd576040517f08c379a0000000000000000000000000000000000000000000000000000000008152600401610af4906125cd565b60405180910390fd5b818160050160008282829054906101000a900467ffffffffffffffff16610b2491906128c6565b92506101000a81548167ffffffffffffffff021916908367ffffffffffffffff16021790555081600560008560ff1660ff16815260200190815260200160002060003373ffffffffffffffffffffffffffffffffffffffff1673ffffffffffffffffffffffffffffffffffffffff16815260200190815260200160002060008282829054906101000a900467ffffffffffffffff16610bc391906128c6565b92506101000a81548167ffffffffffffffff021916908367ffffffffffffffff1602179055503373ffffffffffffffffffffffffffffffffffffffff166108fc8367ffffffffffffffff169081150290604051600060405180830381858888f19350505050158015610c39573d6000803e3d6000fd5b503373ffffffffffffffffffffffffffffffffffffffff168360ff167ff1cc169ba18d6d9114741bffa10145065599d9b2fb390c7507467691db0fdd3484604051610c84919061260f565b60405180910390a3505050565b60036020528060005260406000206000915090508060000160009054906101000a900460ff16908060000160019054906101000a900473ffffffffffffffffffffffffffffffffffffffff1690806001018054610ced906129ed565b80601f0160208091040260200160405190810160405280929190818152602001828054610d19906129ed565b8015610d665780601f10610d3b57610100808354040283529160200191610d66565b820191906000526020600020905b815481529060010190602001808311610d4957829003601f168201915b5050505050908060030160009054906101000a900467ffffffffffffffff16908060030160089054906101000a900460ff1690806004018054610da8906129ed565b80601f0160208091040260200160405190810160405280929190818152602001828054610dd4906129ed565b8015610e215780601f10610df657610100808354040283529160200191610e21565b820191906000526020600020905b815481529060010190602001808311610e0457829003601f168201915b5050505050908060050160009054906101000a900467ffffffffffffffff16905087565b60056020528160005260406000206020528060005260406000206000915091509054906101000a900467ffffffffffffffff1681565b6004600081819054906101000a900460ff1680929190610e9a90612a50565b91906101000a81548160ff021916908360ff16021790555050604051806101000160405280600460009054906101000a900460ff1660ff1681526020013373ffffffffffffffffffffffffffffffffffffffff1681526020018581526020018281526020018367ffffffffffffffff168152602001600015158152602001848152602001600067ffffffffffffffff1681525060036000600460009054906101000a900460ff1660ff1660ff16815260200190815260200160002060008201518160000160006101000a81548160ff021916908360ff16021790555060208201518160000160016101000a81548173ffffffffffffffffffffffffffffffffffffffff021916908373ffffffffffffffffffffffffffffffffffffffff1602179055506040820151816001019080519060200190610fd9929190611a1f565b506060820151816002019080519060200190610ff6929190611aa5565b5060808201518160030160006101000a81548167ffffffffffffffff021916908367ffffffffffffffff16021790555060a08201518160030160086101000a81548160ff02191690831515021790555060c0820151816004019080519060200190611062929190611a1f565b5060e08201518160050160006101000a81548167ffffffffffffffff021916908367ffffffffffffffff1602179055509050503373ffffffffffffffffffffffffffffffffffffffff167f324b428da2a0f864b7a7777ab85ebb823e7c43a11b52ebd21411b7fe7d599a74600460009054906101000a900460ff16868686866040516110f29594939291906126c2565b60405180910390a250505050565b600073ffffffffffffffffffffffffffffffffffffffff16600360008360ff1660ff16815260200190815260200160002060000160019054906101000a900473ffffffffffffffffffffffffffffffffffffffff1673ffffffffffffffffffffffffffffffffffffffff1614156111ac576040517f08c379a00000000000000000000000000000000000000000000000000000000081526004016111a39061252d565b60405180910390fd5b6111b582611912565b6111eb576040517f90eaaa7000000000000000000000000000000000000000000000000000000000815260040160405180910390fd5b6000671bc16d674ec80000905060007f000000000000000000000000000000000000000000000000000000000000000073ffffffffffffffffffffffffffffffffffffffff1663013b2ff83430856040518463ffffffff1660e01b8152600401611256929190612487565b6020604051808303818588803b15801561126f57600080fd5b505af1158015611283573d6000803e3d6000fd5b50505050506040513d601f19601f820116820180604052508101906112a89190611ec8565b90507f000000000000000000000000000000000000000000000000000000000000000073ffffffffffffffffffffffffffffffffffffffff1663095ea7b37f0000000000000000000000000000000000000000000000000000000000000000836040518363ffffffff1660e01b8152600401611325929190612487565b602060405180830381600087803b15801561133f57600080fd5b505af1158015611353573d6000803e3d6000fd5b505050506040513d601f19601f820116820180604052508101906113779190611db3565b507f000000000000000000000000000000000000000000000000000000000000000073ffffffffffffffffffffffffffffffffffffffff1663ec0269016040518060c001604052808781526020016002600089815260200190815260200160002080546113e3906129ed565b80601f016020809104026020016040519081016040528092919081815260200182805461140f906129ed565b801561145c5780601f106114315761010080835404028352916020019161145c565b820191906000526020600020905b81548152906001019060200180831161143f57829003601f168201915b50505050508152602001620493e0815260200186604051602001611480919061262a565b60405160208183030381529060405281526020018481526020016040516020016114a99061256d565b6040516020818303038152906040528152506040518263ffffffff1660e01b81526004016114d791906125ed565b600060405180830381600087803b1580156114f157600080fd5b505af1158015611505573d6000803e3d6000fd5b5050505050505050565b6000600160009054906101000a900473ffffffffffffffffffffffffffffffffffffffff16905090565b6000600360008360ff1660ff16815260200190815260200160002090508060030160089054906101000a900460ff16156115a8576040517f08c379a000000000000000000000000000000000000000000000000000000000815260040161159f906125cd565b60405180910390fd5b348160050160008282829054906101000a900467ffffffffffffffff166115cf9190612888565b92506101000a81548167ffffffffffffffff021916908367ffffffffffffffff16021790555034600560008460ff1660ff16815260200190815260200160002060003373ffffffffffffffffffffffffffffffffffffffff1673ffffffffffffffffffffffffffffffffffffffff16815260200190815260200160002060008282829054906101000a900467ffffffffffffffff1661166e9190612888565b92506101000a81548167ffffffffffffffff021916908367ffffffffffffffff1602179055503373ffffffffffffffffffffffffffffffffffffffff168260ff167f866ae46188416da4e475d4f889f9fc22044c7d5b62de840ca15b55fceeea8481346040516116de919061260f565b60405180910390a35050565b6116f261185b565b80600160006101000a81548173ffffffffffffffffffffffffffffffffffffffff021916908373ffffffffffffffffffffffffffffffffffffffff1602179055508073ffffffffffffffffffffffffffffffffffffffff166117526107f8565b73ffffffffffffffffffffffffffffffffffffffff167f38d16b8cac22d99fc7c124b9cd0de2d3fa1faef420bfe791d8c362d765e2270060405160405180910390a350565b60008060009054906101000a900473ffffffffffffffffffffffffffffffffffffffff169050816000806101000a81548173ffffffffffffffffffffffffffffffffffffffff021916908373ffffffffffffffffffffffffffffffffffffffff1602179055508173ffffffffffffffffffffffffffffffffffffffff168173ffffffffffffffffffffffffffffffffffffffff167f8be0079c531659141344cd1fd0a4f28419497f9722a3daafe3b4186f6b6457e060405160405180910390a35050565b61186361190a565b73ffffffffffffffffffffffffffffffffffffffff166118816107f8565b73ffffffffffffffffffffffffffffffffffffffff16146118d7576040517f08c379a00000000000000000000000000000000000000000000000000000000081526004016118ce9061254d565b60405180910390fd5b565b600160006101000a81549073ffffffffffffffffffffffffffffffffffffffff021916905561190781611797565b50565b600033905090565b60008067ffffffffffffffff81111561192e5761192d612ad8565b5b6040519080825280601f01601f1916602001820160405280156119605781602001600182028036833780820191505090505b5080519060200120600260008481526020019081526020016000206040516119889190612455565b604051809103902014159050919050565b8280546119a5906129ed565b90600052602060002090601f0160209004810192826119c75760008555611a0e565b82601f106119e057803560ff1916838001178555611a0e565b82800160010185558215611a0e579182015b82811115611a0d5782358255916020019190600101906119f2565b5b509050611a1b9190611b05565b5090565b828054611a2b906129ed565b90600052602060002090601f016020900481019282611a4d5760008555611a94565b82601f10611a6657805160ff1916838001178555611a94565b82800160010185558215611a94579182015b82811115611a93578251825591602001919060010190611a78565b5b509050611aa19190611b05565b5090565b828054828255906000526020600020908101928215611af4579160200282015b82811115611af3578251829080519060200190611ae3929190611a1f565b5091602001919060010190611ac5565b5b509050611b019190611b22565b5090565b5b80821115611b1e576000816000905550600101611b06565b5090565b5b80821115611b425760008181611b399190611b46565b50600101611b23565b5090565b508054611b52906129ed565b6000825580601f10611b645750611b83565b601f016020900490600052602060002090810190611b829190611b05565b5b50565b6000611b99611b9484612778565b612753565b90508083825260208201905082856020860282011115611bbc57611bbb612b11565b5b60005b85811015611c0a57813567ffffffffffffffff811115611be257611be1612b0c565b5b808601611bef8982611d04565b85526020850194506020840193505050600181019050611bbf565b5050509392505050565b6000611c27611c22846127a4565b612753565b905082815260208101848484011115611c4357611c42612b16565b5b611c4e8482856129ab565b509392505050565b600081359050611c6581612c7e565b92915050565b600082601f830112611c8057611c7f612b0c565b5b8135611c90848260208601611b86565b91505092915050565b600081519050611ca881612c95565b92915050565b60008083601f840112611cc457611cc3612b0c565b5b8235905067ffffffffffffffff811115611ce157611ce0612b07565b5b602083019150836001820283011115611cfd57611cfc612b11565b5b9250929050565b600082601f830112611d1957611d18612b0c565b5b8135611d29848260208601611c14565b91505092915050565b600081359050611d4181612cac565b92915050565b600081519050611d5681612cac565b92915050565b600081359050611d6b81612cc3565b92915050565b600081359050611d8081612cda565b92915050565b600060208284031215611d9c57611d9b612b20565b5b6000611daa84828501611c56565b91505092915050565b600060208284031215611dc957611dc8612b20565b5b6000611dd784828501611c99565b91505092915050565b60008060008060808587031215611dfa57611df9612b20565b5b600085013567ffffffffffffffff811115611e1857611e17612b1b565b5b611e2487828801611d04565b945050602085013567ffffffffffffffff811115611e4557611e44612b1b565b5b611e5187828801611d04565b9350506040611e6287828801611d5c565b925050606085013567ffffffffffffffff811115611e8357611e82612b1b565b5b611e8f87828801611c6b565b91505092959194509250565b600060208284031215611eb157611eb0612b20565b5b6000611ebf84828501611d32565b91505092915050565b600060208284031215611ede57611edd612b20565b5b6000611eec84828501611d47565b91505092915050565b600080600060408486031215611f0e57611f0d612b20565b5b6000611f1c86828701611d32565b935050602084013567ffffffffffffffff811115611f3d57611f3c612b1b565b5b611f4986828701611cae565b92509250509250925092565b60008060408385031215611f6c57611f6b612b20565b5b6000611f7a85828601611d32565b9250506020611f8b85828601611d71565b9150509250929050565b600060208284031215611fab57611faa612b20565b5b6000611fb984828501611d71565b91505092915050565b60008060408385031215611fd957611fd8612b20565b5b6000611fe785828601611d71565b9250506020611ff885828601611c56565b9150509250929050565b6000806040838503121561201957612018612b20565b5b600061202785828601611d71565b925050602061203885828601611d5c565b9150509250929050565b600061204e83836121f8565b905092915050565b61205f8161290c565b82525050565b61206e816128fa565b82525050565b600061207f826127fa565b6120898185612828565b93508360208202850161209b856127d5565b8060005b858110156120d757848403895281516120b88582612042565b94506120c38361281b565b925060208a0199505060018101905061209f565b50829750879550505050505092915050565b6120f28161291e565b82525050565b600061210382612805565b61210d8185612839565b935061211d8185602086016129ba565b61212681612b25565b840191505092915050565b600061213c82612805565b612146818561284a565b93506121568185602086016129ba565b61215f81612b25565b840191505092915050565b60008154612177816129ed565b612181818661285b565b9450600182166000811461219c57600181146121ad576121e0565b60ff198316865281860193506121e0565b6121b6856127e5565b60005b838110156121d8578154818901526001820191506020810190506121b9565b838801955050505b50505092915050565b6121f281612975565b82525050565b600061220382612810565b61220d8185612866565b935061221d8185602086016129ba565b61222681612b25565b840191505092915050565b600061223c82612810565b6122468185612877565b93506122568185602086016129ba565b61225f81612b25565b840191505092915050565b6000612277601383612877565b915061228282612b36565b602082019050919050565b600061229a602983612877565b91506122a582612b5f565b604082019050919050565b60006122bd601083612877565b91506122c882612bae565b602082019050919050565b60006122e0602083612877565b91506122eb82612bd7565b602082019050919050565b6000612303600083612877565b915061230e82612c00565b600082019050919050565b6000612326600983612877565b915061233182612c03565b602082019050919050565b6000612349601283612877565b915061235482612c2c565b602082019050919050565b600061236c601183612877565b915061237782612c55565b602082019050919050565b600060c08301600083015161239a6000860182612419565b50602083015184820360208601526123b282826120f8565b91505060408301516123c76040860182612419565b50606083015184820360608601526123df82826120f8565b91505060808301516123f46080860182612419565b5060a083015184820360a086015261240c82826120f8565b9150508091505092915050565b6124228161294a565b82525050565b6124318161294a565b82525050565b61244081612954565b82525050565b61244f81612968565b82525050565b6000612461828461216a565b915081905092915050565b60006020820190506124816000830184612065565b92915050565b600060408201905061249c6000830185612065565b6124a96020830184612428565b9392505050565b600060208201905081810360008301526124ca8184612131565b905092915050565b60006020820190506124e760008301846121e9565b92915050565b600060208201905081810360008301526125068161226a565b9050919050565b600060208201905081810360008301526125268161228d565b9050919050565b60006020820190508181036000830152612546816122b0565b9050919050565b60006020820190508181036000830152612566816122d3565b9050919050565b60006020820190508181036000830152612586816122f6565b9050919050565b600060208201905081810360008301526125a681612319565b9050919050565b600060208201905081810360008301526125c68161233c565b9050919050565b600060208201905081810360008301526125e68161235f565b9050919050565b600060208201905081810360008301526126078184612382565b905092915050565b60006020820190506126246000830184612437565b92915050565b600060208201905061263f6000830184612446565b92915050565b600060e08201905061265a600083018a612446565b6126676020830189612056565b81810360408301526126798188612231565b90506126886060830187612437565b61269560808301866120e9565b81810360a08301526126a78185612231565b90506126b660c0830184612437565b98975050505050505050565b600060a0820190506126d76000830188612446565b81810360208301526126e98187612231565b905081810360408301526126fd8186612231565b905061270c6060830185612437565b818103608083015261271e8184612074565b90509695505050505050565b600060408201905061273f6000830185612446565b61274c6020830184612437565b9392505050565b600061275d61276e565b90506127698282612a1f565b919050565b6000604051905090565b600067ffffffffffffffff82111561279357612792612ad8565b5b602082029050602081019050919050565b600067ffffffffffffffff8211156127bf576127be612ad8565b5b6127c882612b25565b9050602081019050919050565b6000819050602082019050919050565b60008190508160005260206000209050919050565b600081519050919050565b600081519050919050565b600081519050919050565b6000602082019050919050565b600082825260208201905092915050565b600082825260208201905092915050565b600082825260208201905092915050565b600081905092915050565b600082825260208201905092915050565b600082825260208201905092915050565b600061289382612954565b915061289e83612954565b92508267ffffffffffffffff038211156128bb576128ba612a7a565b5b828201905092915050565b60006128d182612954565b91506128dc83612954565b9250828210156128ef576128ee612a7a565b5b828203905092915050565b60006129058261292a565b9050919050565b60006129178261292a565b9050919050565b60008115159050919050565b600073ffffffffffffffffffffffffffffffffffffffff82169050919050565b6000819050919050565b600067ffffffffffffffff82169050919050565b600060ff82169050919050565b600061298082612987565b9050919050565b600061299282612999565b9050919050565b60006129a48261292a565b9050919050565b82818337600083830152505050565b60005b838110156129d85780820151818401526020810190506129bd565b838111156129e7576000848401525b50505050565b60006002820490506001821680612a0557607f821691505b60208210811415612a1957612a18612aa9565b5b50919050565b612a2882612b25565b810181811067ffffffffffffffff82111715612a4757612a46612ad8565b5b80604052505050565b6000612a5b82612968565b915060ff821415612a6f57612a6e612a7a565b5b600182019050919050565b7f4e487b7100000000000000000000000000000000000000000000000000000000600052601160045260246000fd5b7f4e487b7100000000000000000000000000000000000000000000000000000000600052602260045260246000fd5b7f4e487b7100000000000000000000000000000000000000000000000000000000600052604160045260246000fd5b600080fd5b600080fd5b600080fd5b600080fd5b600080fd5b600080fd5b6000601f19601f8301169050919050565b7f646f6e61746564203e3d20726571756972656400000000000000000000000000600082015250565b7f4f776e61626c6532537465703a2063616c6c6572206973206e6f74207468652060008201527f6e6577206f776e65720000000000000000000000000000000000000000000000602082015250565b7f496e76616c69642063616d706169676e00000000000000000000000000000000600082015250565b7f4f776e61626c653a2063616c6c6572206973206e6f7420746865206f776e6572600082015250565b50565b7f6e6f742061646d696e0000000000000000000000000000000000000000000000600082015250565b7f646f6e61746564203c2072657175697265640000000000000000000000000000600082015250565b7f646f6e6174696f6e20636f6d706c657465000000000000000000000000000000600082015250565b612c87816128fa565b8114612c9257600080fd5b50565b612c9e8161291e565b8114612ca957600080fd5b50565b612cb58161294a565b8114612cc057600080fd5b50565b612ccc81612954565b8114612cd757600080fd5b50565b612ce381612968565b8114612cee57600080fd5b5056fea2646970667358221220b9c59f47846b3a71f64ce869bd584ecb65d4b9c99235b6b42552b762af06363f64736f6c63430008070033",
  "linkReferences": {},
  "deployedLinkReferences": {}
}